:0200000407FCF7
:10000000C081FC07BD01FC07C501FC07DD01FC0741
:1000100000000000000000000000000000000000E0
:10002000000000000000000000000000F501FC07D7
:100030000000000000000000F701FC076503FC075A
:10004000F731FC073132FC07A526F007A32EFC0789
:100050001B2BFC07FB01FC072128FC07FB01FC070D
:10006000FB01FC07FB01FC07AF25FC07B325FC07E0
:10007000B725FC07BB25FC07BF25FC07FB01FC07D8
:10008000E925FC07FB01FC07FB01FC07FB01FC0762
:10009000FB01FC07FB01FC07FB01FC07FB01FC0764
:0800A000000000008E070E00B5
:0200000407FCF7
:100110000348854606F06EF900480047E111FC07E8
:10012000C081FC0710B520480189C908C9000181B8
:10013000008A1E4CC00715D0608A8007800F0128F6
:1001400010D91B481949428820310A8182888A8047
:10015000C2880A80618AFF22813200889143C001EF
:10016000014361821349062008800F2000F00EF839
:10017000012000F00BF8002000F008F8608904214D
:10018000884360810020208062B610BD002809DB12
:10019000C106C90E0120884007490860BFF34F8F90
:1001A000BFF36F8F70470000000300500000005045
:1001B000A000FC070034005080E100E00F488047B9
:1001C0000F48004704207146084203D0EFF309802E
:1001D0000C490847EFF308800A4908470420714694
:1001E000084203D0EFF3098007490847EFF308807E
:1001F00005490847FEE7FEE7FEE7FEE72501FC07A5
:100200001101FC07A502FC070D02FC0710B504460E
:1002100020484089C00508D51B2001F0CDFF1D48AE
:1002200060300188012211430180052212071088E5
:100230000007800F518AFF2381339943C001014396
:10024000518215482168016061684160A168816040
:10025000E168C1602169016161694161A1698161F0
:10026000E169C16104620D498B6A4362CB6A8362B2
:100270000B6BC362CB6B03634B6B4363896B816313
:10028000074908200880908AC00601D500BE10BD2D
:10029000FEE70000200000500090FC0700ED00E0A9
:1002A0000033005070B5044605252D07288A042127
:1002B00008432882288940210843288124480126B0
:1002C000066024490820088023484089C00507D5D6
:1002D0001B2001F071FF204860300188314301800C
:1002E00028880007800F698AFF2281329143C0016C
:1002F0000143698219482168016161684161A1680F
:100300008161E168C1612169016261694162A1693C
:100310008162E169C162046311498A6A4263CA6AFF
:1003200082630A6BC263CA6B0C48403002604A6B3E
:100330004260896B8160A88AC00608D500BE688AC1
:10034000012180088000C9030843688270BDFEE770
:1003500080E200E000330050200000504090FC0795
:1003600000ED00E0FE48C169491CC16170470020F2
:100370007D21C90100BF401C8842FBDB7047F1B5FD
:1003800090B00024099408940794069405940122DF
:100390008D21742002F0EAFB01220821752002F071
:1003A000E5FB012209A9E92002F0CEFB012208A900
:1003B000EA2002F0C9FB08A908780502087905437C
:1003C000012207A98A2002F0BFFB012206A98B2087
:1003D00002F0BAFB6946087E097F0002084306B2B4
:1003E000012205A98C2002F0AFFB0A9401220AA980
:1003F000222002F0A9FB0AAC0122611C232002F09A
:10040000A3FB0122A11C242002F09EFB08A9887AEC
:100410000209D3480270087A497A000309010843A7
:10042000CF49104348620F90304605F01FFE064644
:100430000F46284605F02EFE0922D2430D910E905C
:1004400005F0ECFD04460D460F9805F023FE0D2245
:10045000D2430B910C9005F0E1FD22462B4605F0AE
:10046000EFFC32463B4605F0F9FC06460F4669466E
:100470001420085605F0FAFD042205F0CFFD0446CD
:100480000D460C22D2430D990E9805F0C7FD01913F
:1004900000901022D2430B990C9805F0BFFD019BF0
:1004A000009A05F0CDFC02460B4605F0D7FC22462B
:1004B0002B4605F0D3FC32463B4605F01DFCA84A0E
:1004C0000446D1670D4690670022A64B2046294678
:1004D00005F02CFD06460F4603AA2046294605F0E6
:1004E00028FB3046394605F081FE9D49486502905B
:1004F0000C2202A910985EF7FFFD11B0F0BDF0B517
:10050000A9B004460D4600262896279625962496DF
:10051000219620961E961D96199618961696159653
:1005200001228D21742002F021FB01220821752077
:1005300002F01CFB012228A98E2002F005FB0122FB
:1005400027A98F2002F000FB20AB187F28AB197879
:10055000000208432690012225A9902002F0F4FA17
:10056000012224A9912002F0EFFA20AB187C197D1A
:100570000002084300B22390012222A9922002F037
:10058000E3FA012221A9942002F0DEFA012220A937
:10059000952002F0D9FA20AB1878197900020843A7
:1005A00000B21F9001221EA9962002F0CDFA01226E
:1005B0001DA9972002F0C8FA18AB187D197E000219
:1005C000084300B21C9001221BA9992002F0BCFA3A
:1005D00001221AA9982002F0B7FA012219A99C2039
:1005E00002F0B2FA012218A99D2002F0ADFA18AB70
:1005F000187819790002084300B21790012216A951
:100600009E2002F0A1FA012215A99F2002F09CFA77
:1006100010AB187D197E0002084300B2149001222D
:1006200013A9A02002F090FA1296012212A91F200D
:1006300002F08AFA12AE0122711C202002F084FA24
:100640000122B11C212002F07FFA10AB987A000938
:10065000197A5A7A090312011143014311910122B7
:1006600010A91D2002F070FA2046294605F020FD51
:100670000022D24305F0D2FC00223B4B05F0E0FB08
:1006800004460D4618A90C20085605F0EFFC102270
:10069000D24305F0C3FC06460F4622462B462046B1
:1006A000294605F0DBFB32463B4605F0D7FB0F91B0
:1006B0000E901C9805F0DAFC22462B4605F0CEFB86
:1006C000012205F0ABFC0F9B0E9A05F015FB0F9174
:1006D0000E901F9805F0CAFC102205F09FFC0646FC
:1006E0000F460122D2430F990E9805F097FC32462F
:1006F0003B4605F001FB0F910E90239805F0B6FCE8
:1007000022462B4605F0AAFB0A9020AA0B9108204E
:10071000105605F0ABFC22462B4605F09FFB224607
:100720002B4605F09BFB0D22D24305F077FC0B9B7B
:100730000A9A05F0E1FA1222D24305F06FFC044652
:100740000D46269805F0A6FC06460F460E22D2431B
:100750002046294605F062FC0022044B08E0000018
:10076000407AFC070000B4400040EF400000F03F3A
:1007700005F0C2FA32463B4605F070FB04460D46D2
:10078000119805F087FC0022FE4B05F05FFB064642
:100790000F460B22D2430F990E9805F03FFC3246CC
:1007A0003B4605F053FB0022F74B05F057FB224672
:1007B0002B4605F0BBFB06460F46149805F056FC89
:1007C00032463B4605F04AFB32463B4605F046FBC7
:1007D0001E22D24305F022FC04460D46179805F070
:1007E00045FC0E22D24305F019FC32463B4605F08B
:1007F00035FB0F910E9010AA107B05F04BFC1022D8
:10080000D24305F00BFC07220B910A90D2433046ED
:10081000394605F003FC06900791029003910246C9
:100820000B460191009005F019FB05910490079B80
:10083000069A05F013FB099108900B9B0A9A05F0A4
:100840000DFB0D910C9018AB0820185605F00EFC0E
:10085000072205F0E3FB0A900B91204629460F9BE7
:100860000E9A05F049FA0D9B0C9A05F045FA0B9B80
:100870000A9A05F041FA0322D24305F0CFFB324633
:100880003B4605F039FA06460F460022BF4B30467C
:10089000394605F04BFB05F0A9FC05F01FFC29B01B
:1008A000F0BDF0B593B004460D460122022172203E
:1008B00002F05CF901221146742002F057F901227E
:1008C00012A9E22002F040F9012211A9E32002F06E
:1008D0003BF910AA1079117A00010907090F0843A2
:1008E000109001220FA9E22002F02EF901220EA998
:1008F000E12002F029F908AA107E117F0001090900
:1009000008430D9001220CA9E42002F01DF90122F8
:100910000BA9E52002F018F901220AA9E62002F04D
:1009200013F9012209A9E72002F00EF9012208A912
:10093000E82002F009F9012207A9262002F004F9B3
:10094000012206A9252002F0FFF86A46107E117FD9
:100950000002084300B20590012204A91D2002F004
:10096000F3F800228A4B2046294605F0DFFA0446B8
:100970000D4608AA1020105605F078FB0022D2433D
:1009800005F04CFB22462B4605F068FA06460F465A
:10099000109805F07FFB042205F040FB32463B46F1
:1009A00005F0AAF906460F46059805F05FFB3246AA
:1009B0003B4605F045FA0391029008AA082010561C
:1009C00005F054FB1322D24305F028FB22462B46A8
:1009D00005F044FA22462B4605F040FA064608AADE
:1009E0000C200F46105605F041FB0D22D24305F0B6
:1009F00015FB22462B4605F031FA0022654B05F027
:100A00007BF932463B4605F077F906460F460D98CE
:100A100005F040FB1122D24305F000FB32463B4675
:100A200005F01CFA039B029A05F018FA06460F46D9
:100A300008AA107905F02EFB0D22D24305F0EEFA3C
:100A40000191009008AA0020105605F00FFB142217
:100A5000D24305F0E3FA22462B4605F0FFF9019B4D
:100A6000009A05F049F932463B4605F0F7F932465F
:100A70003B4605F0F3F932463B4605F03DF905F0FB
:100A8000B5FB05F044FB80B213B0F0BD10B50122F8
:100A9000B621E02002F06AF801221121642002F060
:100AA00065F8012211216D2002F060F810BD10B52B
:100AB00001221146742002F059F801221021712000
:100AC00002F054F810BDF3B5A9B001226F215A20ED
:100AD00002F04CF801226521642002F047F801225F
:100AE0002D49ED2002F030F82B490122491CEB2062
:100AF00002F02AF828490122891CEC2002F024F88F
:100B0000254CE41E607921790002084320830122EC
:100B1000A11DEE2002F018F80122E11D022002F0D2
:100B200013F83020E1790140A182214601220831E9
:100B3000002002F009F8207AE0820122611C2A20BC
:100B400002F002F80122A11C2B2001F0FDFF6078C9
:100B5000A178800008436082012210492B2001F017
:100B6000F3FF0E4800780007000FA0722146012213
:100B70000931042001F0E8FF607A289040B20009B2
:100B800000010DE000003041006AB840000059400B
:100B90000000B4400000F03F437AFC075877FC07A0
:100BA000C117090F08180011E072E07805F072FA19
:100BB0000322D24305F032FA0022FE4B05F09CF8E6
:100BC00027468037796005460E463860208B05F051
:100BD00061FA0E22D24305F021FAF74AF74B05F0ED
:100BE0003DF9F74AF74B05F087F8F960B8602791AF
:100BF0002690A07905F04EFA0922D24305F00EFAAC
:100C000079613861259124900020EF49279B269A2D
:100C100005F024F90022ED4B05F06EF82A46334624
:100C200005F01CF9F96105460E46B861299805F0F2
:100C300031FA259B249A05F011F92A46334605F02E
:100C40005BF87962386223912290E08A05F022FAFB
:100C5000D94ADF4B05F002F90022DC4B05F04CF8D5
:100C600002460B460020D94905F060F905460E46BC
:100C7000A08A05F00FFA0022D64B05F03DF8024697
:100C80000B460020D34905F051F9239B229A05F029
:100C9000E5F82A46334605F0E1F80022CE4B05F090
:100CA000CFF8CE4ACE4B05F0D9F805F045FAC0B2E0
:100CB00005F0F0F9F962B8624022CA4911A85EF75E
:100CC0001BFA4022C749403101A85EF715FAA07A05
:100CD00011A980002190085805F074FA05460E46C7
:100CE000289805F0D7F90022BF4B05F0B7F800228D
:100CF000BE4B05F001F82A46334605F0AFF805F083
:100D000075FA07466063384605F05CFA05460E46FC
:100D1000608A05F0BFF981230022DB0505F090F819
:100D20002A46334604F0E8FF04460D46219801A9FF
:100D30000958384604F065FF05F044FA22462B4670
:100D400005F0F4F805F052FAA94904F097FF2BB02A
:100D5000F0BDF0B587B0A74EA748316A069104F000
:100D600048FF0446F063A54841680591F06E04F021
:100D700040FF07463064A1480125ED058068A04981
:100D800004F03FFF9E49049004F037FF0390AF4208
:100D900012DB9B48059904F02CFF3946029004F0C1
:100DA00028FF02461046029904F068FF01460498A5
:100DB00004F027FF70640BE03946059804F0C8FE84
:100DC000059904F05BFF0146039804F01AFF706474
:100DD000AC4209DB8849069804F050FF01460398AD
:100DE00004F00FFFB06401E00398B064B06C0746F4
:100DF00005F0E8F9834A844B05F030F80446706C3E
:100E00000D46019005F0DEF9744A804B05F026F896
:100E100022462B4604F070FF00227D4B05F01EF8A1
:100E200005F0E4F9F0643946019804F091FE07B04A
:100E3000F0BD10B5B0B0342123A85EF776F920A834
:100E4000FFF79DFA209805F062F904468021684674
:100E50005EF76BF9200A694608704C700A228021FF
:100E6000684604F00FFC7D20C000FFF780FA209850
:100E700005F0A8F902460B4666A123A805F0CCFAB6
:100E800023A96A4802F054F930B010BD30B5ADB0B6
:100E9000342120A85EF749F9564CE16FA06F05F0A8
:100EA00069F9226FFFF72BFB05F0CEF805F02FF95B
:100EB00085B25F48E062607B012802D0022803D03F
:100EC00004E05C49E16201E05B49E162401C60735F
:100ED000802168465EF729F9280A694608704D7036
:100EE0000A228021684604F0CDFB7D20C000FFF778
:100EF0003EFAE06A05F066F902460B464FA120A8CB
:100F000005F08AFA20A9494802F012F92DB030BD47
:100F100030B5ADB0342120A85EF707F9354D2A6B06
:100F2000E96FA86FFFF7BDFC05F099F8E86605F0DA
:100F3000EEF80446802168465EF7F7F8200A694615
:100F400008704C700A228021684604F09BFB7D20CB
:100F5000C000FFF70CFAE86E05F034F902460B46C4
:100F60003CA120A805F058FA20A9304802F0E0F88A
:100F7000CCE730B5ADB0342120A85EF7D6F81D4DD2
:100F8000A86A05F0C4F8C0B2A96BFFF79CFD2862FF
:100F900005F0BDF80446802168465EF7C6F8200AD1
:100FA000694608704C700A228021684604F06AFB8A
:100FB0007D2059E000804840FCA9F1D24D62403FBD
:100FC00055C1A8A44E40633F000074400000F03FAC
:100FD0004D62603F0000104000003940333333332E
:100FE00033330B40EC6DFC070000144000F09440DC
:100FF00000007A44407AFC070024F44A5877FC0742
:101000000000C8429A9999999999D93F3333E33F9F
:10101000000024400A0D2054656D70726174757271
:1010200065203D252E3266B04300000000110050BF
:101030000040644400806444000064440A0D205071
:1010400072657373757265203D252E326668506136
:10105000000000000A0D2048756D696469747920EC
:101060003D252E3266252500C000FFF780F9286A4D
:1010700005F0A8F802460B46FAA120A805F0CCF925
:1010800020A9FD4802F054F840E770B5AEB0342115
:1010900021A85EF74AF8F94EB06C05F093F8F84ACB
:1010A000F84B04F0DBFE04460D46706C05F08AF840
:1010B000F54AF64B04F0D2FE22462B4604F01CFE05
:1010C0000022F34B04F0CAFE05F090F8F06405F03E
:1010D0001EF80446802101A85EF727F8200A694619
:1010E00008714C710A22802101A804F0CBFA7D20FE
:1010F000C000FFF73CF9F06C05F064F802460B46BF
:10110000E4A121A805F088F921A9DB4802F010F834
:101110002EB070BD30B5ADB0342120A85EF705F813
:10112000D64D296EE86DFFF714FEA86604F0EFFFB8
:101130000446802168465DF7F8FF200A694608707A
:101140004C700A228021684604F09CFA7D20C00081
:10115000FFF70DF9A86E05F035F802460B46D2A14F
:1011600020A805F059F920A9C34801F0E1FFCDE618
:10117000F8B5D14D0026E86AF643002801D0314683
:1011800000E00121E962C8174A0DC002CB4C1043B0
:101190002268C90263681143184321606060286AAD
:1011A000002800D101262E62F017310E00020843FC
:1011B0002368310262681943104321606060012492
:1011C000002209230B211046009401F0E5F80322C8
:1011D0000A23120208210020009401F0DDF8F8BD76
:1011E0001FB500F022F900F0ECFBFFF7C1FF01F0A2
:1011F000CDFCFFF74BFCA14901220E31D02001F0BC
:10120000A3FC9E4E05273F0701A8FFF7B8F802A8E8
:1012100004F081FCF167B067019AB262A84AF262F9
:10122000326BFFF73EFB04F01AFFF066FFF73FFC5E
:101230007D20C000FFF79BF8B06A04F068FFC0B2E1
:10124000B16BFFF740FC3062316EF06DFFF781FD4E
:10125000B066B06C04F0B6FF894A8A4B04F0FEFD1C
:1012600004460D46706C04F0ADFF874A874B04F0CE
:10127000F5FD22462B4604F03FFD0022844B04F08E
:10128000EDFD04F0B3FFF0648E48FFF770F8388985
:10129000000608D501208007006B000403D48A48AB
:1012A0000078C0071ED00020002815D05CF7A5F8F4
:1012B000002000F03DFA8548007804280CD1012078
:1012C00000F036FA00200090042168464CF736FC06
:1012D000002801D000F0F2FA72B602F05AF80428A1
:1012E00002D006E00120DFE779480078012807D026
:1012F0000320022806D0032804D0012814D014E0CB
:101300000220F6E700F05AF8B88AC00602D5714903
:101310000820088030BFB88AC00602D56D49082071
:10132000488000F007F800E030BF62B6C8206A4984
:10133000088069E710B500F0C7F9684A022814D19F
:1013400005200007408AC005810F65480170090A21
:10135000417011898170090AC17091880171090A6F
:10136000417111888171090AC17150896022C005DB
:1013700000280ADB594860300088C00705D057496B
:101380002031488A904320304882564988889043CB
:10139000203088805448C078002807D0534800681F
:1013A00001898AB2416803205BF788F903F043FFA3
:1013B0004F48016904229143016110BD7CB5054687
:1013C000019005242407218A04221143218200F080
:1013D000B9F8424841896023C905002905DB3F4926
:1013E00020314A8A9A4340324A823E498A889A4347
:1013F00040328A80022D01D0032D15D18188490801
:10140000490081800021009102E00098401C00907A
:1014100000981428F9DB608980088000401C6081F6
:1014200060894006FCD561807CBDF0B53148324C06
:1014300005260127314DA04201D3304604E0A842E1
:1014400001D3384600E00020274B98702C492D4AE4
:1014500089182D4A8918596001229203914255D862
:10146000142154E00A0D20476173203D252E336678
:101470004B6F686D0000000000110050407AFC07BF
:101480009A9999999999D93F333333333333E33F59
:10149000000024400A0D20436F325F6571203D2516
:1014A0002E326670706D00000A0D20415149203DBA
:1014B000252E326620252500688CFC07608CFC07F1
:1014C00000C06444204E000054BAFC07C08CFC07E6
:1014D000B4BAFC0700330050003100502000005027
:1014E000A000FC0720030050C08BFC0758B9FC0784
:1014F00000ED00E0C08BFC070070FC070040FC071B
:101500001001FC0730790000000004F800210140C0
:1015100059703A49A14213D239480A461018A942D3
:1015200005D3A04201D211260AE03E4608E0A842B7
:1015300001D2142604E0A04201D2102600E00026C9
:101540001E70F0BDF8B5022801D0032847D12D49FF
:101550000B69042213430B612B498B895B085B00E9
:101560008B812A4E0525102174782D07022837D04B
:10157000688A08436882688A104368827068C01C61
:10158000870801F05BFB688A1021084368822048C5
:101590007F1E0762EFF31080012181F310882988F4
:1015A00080229143298000281ED0012080F31088DA
:1015B00018484089C0050AD5C046C0460B2000F037
:1015C000FBFD144960310A88012002430A80032090
:1015D0005BF79AF800280BD00120F0702C83F8BD3F
:1015E000688A88436882F2E7002080F31088DFE78A
:1015F0000020F07030780440F0E70000C081FC0764
:101600000C08000000ED00E000030050C08BFC0758
:101610000000F40720000050704770B50D4600240C
:1016200041F76DF92855641CE4B2202CF8D3002052
:1016300070BD10B55DF74EFD10BD10B55DF753FDE3
:1016400010BD7047704770470649884200D000BE01
:1016500005210907488A800880000122D20310432F
:1016600048827047111111112D480178002902D0CC
:101670008021417070472B49002008702A49C870AA
:10168000704727490A78002A03D000280CD002208E
:101690000BE0002801D0022000E001202149087061
:1016A00021490120C8707047012080304870704780
:1016B000002805D0012804D0022804D10120E0E749
:1016C000D2E70020DDE7704700201649097800299D
:1016D00004D0012903D0022900D102207047012043
:1016E00070470F48C07870470020EFF31081012247
:1016F00082F31088052212071289120605D40B48BE
:10170000028901231A4302810120002903D001210B
:1017100081F310887047002181F310887047000022
:10172000C88BFC07B4BAFC0754BAFC07003300505E
:1017300010B5FE4CA178002921D0FD49002803D026
:1017400008884007FCD402E00888400717D4C888FE
:101750008988000442180020A070F6485043800B8E
:10176000401C4008E0611F2000234006492161F72A
:1017700077FEE162A06264214843000CA06110BDC5
:10178000EB49488008880322104308800888042217
:1017900010430880E549012088707047E349AA207A
:1017A00048617047F8B50524240720893021884313
:1017B0002081208980210843208120890821084335
:1017C0002081DD4D28884008400028806089182647
:1017D000B04360812089402738432081208A04213A
:1017E00088432082A08A8007FCD5FFF7D7FF01211C
:1017F000E8880F22120290430B2212028018E88020
:10180000E8880843E8806089B043083060816888D0
:10181000884368802089B843208188070168821541
:1018200091430160C54801683F225202914342142E
:10183000891801600168020311430160F8BD10B509
:10184000BA490122D203C969904205D304F00FFEC0
:101850008905800A084310BD4843800A10BDEEE7A1
:1018600010B5B24989694843B549401849005DF748
:10187000C9FB10BDF4E770B500F034FC05462846FE
:10188000FFF7F8FFA94C208128463C30FFF7F2FF14
:10189000AC49001D886022891018C01D4860AA4A02
:1018A0001278022A01D1113048604868FFF7D7FF4B
:1018B000A649401880B25BF731FE70BDF0B585B027
:1018C0000121A348C163C16B0029FCD1012080071D
:1018D000C069964D2969884201D200212961296990
:1018E0001922411AD20191422AD3286199480688C7
:1018F000478881880391C0880290974803C8019166
:101900000090684600F06BFF00F093FF0446012052
:1019100028567F2816D0201A40B2002801DA40420B
:1019200040B2082805DBE868401CE86001F048FF89
:101930006C7088484780039981800299C180068035
:1019400005B0F0BD6C70F4E70020704710B5834916
:1019500000200860FFF78FFF01208007016B49001E
:101960004908016310BD08B57049888072498A88AA
:10197000520852008A800023009302E00099491C1B
:10198000009100991429F9DB052109074A89920879
:101990009200521C4A814A895206FCD54880009325
:1019A000E120C00002E0009A521C0092009A82429C
:1019B000F9DB488980088000488148890006FCD509
:1019C00008BDF8B56648C8210180002141806548FE
:1019D0000824448000F036FC634DA88800906946D6
:1019E0000888C046C04669460888042398433ED00C
:1019F0000020A8805C48203001880F229202114309
:101A000001804D4A2032518A214351824A49603136
:101A10000D880626B5430D800688CD012E4306802D
:101A2000568AAE435682958A0E26B543AD1D9582E1
:101A3000414D6E894D4FF6051ED50E88BE431701E8
:101A4000F6190E800E880F023605360DF6190E8037
:101A500006882643068006889E4306800E88760800
:101A600076000E8001884026B143018021E0288A5B
:101A7000400840002882BDE70E88BE4303277F024E
:101A8000F6190E800E880F273F033E430E8006880E
:101A9000A643068006889E430680968A03277F0217
:101AA000BE4396820E8801273E430E80698949070E
:101AB000FCD50188032631430180518A6026B14359
:101AC000203151828188B14320318180174F01201C
:101AD000387005263607F08AC02188438030F082AE
:101AE000288A000A00022882288B1C21884308309B
:101AF00028831F480380B0880121C9028843B08031
:101B000048011C49086001F099F8022001F05DF8D5
:101B1000194D2869C0B2AA2872D0012031880C2240
:101B20009143800001433180004827E0D08BFC07BF
:101B3000001600501111010020000050000200406A
:101B400020A10700007BFC07B4BAFC07E2040000F8
:101B5000C000004000150050D470FC07A8B9FC0775
:101B6000003100500033005000030050000F00000F
:101B70000002005080E200E0C07FF807203000F053
:101B8000CDFA00F037F900F0AAFA00283AD000F0B8
:101B9000A6FAFFF7E8FE7F207870A86A1F49086060
:101BA00001F07EF800F044F803F045FB012040F717
:101BB000ACFEFFF7F7FD1A48006840F74BFB1949E8
:101BC0000020C87008710121890708688A15104330
:101BD000086001F074FA1E20FFF7D2FD0120FFF724
:101BE000A7FDFFF741FD02F00FFC03F0D4FBFFF768
:101BF000ADFE0D49C82008800C484480F8BDFFE7C1
:101C000003208BE72869C0B2AA2803D06E20FFF713
:101C1000AAFEC0E78020FFF7A6FEBCE7007BFC071A
:101C20004CB9FC0754BAFC07003100500033005097
:101C300070B592B0334E34683348344900688842F6
:101C400005D005225202324932485DF755FA324D2D
:101C5000284632495DF769FA3148072109025DF7E4
:101C600064FA346003F034FF2F492E4808602F488F
:101C70000024048030222E492E485DF73DFA294980
:101C80008868C96811911090082210A92A485DF748
:101C900033FA40222349103168465DF72DFA40227D
:101CA000694626485DF728FA2548047026492548E4
:101CB00008602749254808602749264808602749C1
:101CC0000A200870264804702649322008702649E8
:101CD00005200860254A0121116025490860254931
:101CE000062008602449072008602449082008606D
:101CF000FF20234907300860224908602248056018
:101D000012B070BD5CBAFC079CB8FC076587341242
:101D100000B0FC072491FC0700A0FC07AC140000F5
:101D200000B9FC07DC70FC0760BAFC07008CFC07FC
:101D30007CFCF10700BAFC07DAB9FC07B0BCFC0771
:101D4000FDB9FC07603FF20750B9FC076C6EFC0759
:101D500054B9FC07E86FFC0758B9FC07B0B9FC0799
:101D6000B1B9FC07D9B9FC075CB9FC0760B9FC073D
:101D700064B9FC0768B9FC076CB9FC0770B9FC07CB
:101D800048B9FC0744B9FC074CB9FC070103081823
:101D90000B494118C80C48400A49484041010818FD
:101DA00009494118094A480289184840C1000818E1
:101DB00007494118080C4840064948407047000050
:101DC000165DD57E3CC261C7B16756166C64A2D35E
:101DD000C54670FD094F5AB5081A0104890C401810
:101DE000C249401800B27047C2008018401A00046F
:101DF000C0147047F0B585B0BD4D002028766876D8
:101E00000027BC480069BC49884202D0C81705B009
:101E1000F0BD0424C6E0B74A403AA018016D049111
:101E20000499090F092911D00498D30598426ED35B
:101E3000B24B049898426AD80834B1490498884251
:101E400074D1A018C06CAF494880ABE00499C9B206
:101E5000049A1204160E112937D007DC0B005DF727
:101E60009FF9087474747474740D207412390B0023
:101E70005DF796F9063C4E5D6B60656B287EB2009F
:101E8000C1009B48403808189A49143161185DF721
:101E900033F9287E8019C0B22876042855D900BEAF
:101EA00053E0687EB200C10091484038081891495B
:101EB0001030143161185DF71FF9687E8019C0B2C7
:101EC00068760C2841D900BE3FE0416D89B201918E
:101ED000406D000C009000990198FFF77DFFA880ED
:101EE00000990198FFF780FFE8802EE0416D89B2EC
:101EF0000191406D000C009000990198FFF76CFF74
:101F0000288100990198FFF76FFF68811DE03DE08F
:101F1000B80002A940187749B200143161185DF782
:101F2000EBF8BF19022F10D900BE0EE011E0406D92
:101F300068820AE0416D6E484038016405E0406DFA
:101F400080B2A882002800D100BEB0000419241D70
:101F500028E06B4904982639884203D1A018C06C48
:101F6000E8821FE066490498091F884204D1A0183E
:101F7000C06C6449888015E061490498083988423A
:101F800010D1A018C06C5F49C8800BE0072930D081
:101F9000082930D00A2930D0062930D00498401CB6
:101FA00007D000BE5348103021185748814200D254
:101FB00031E70298A881039884B20398060C314651
:101FC0002046FFF709FFE88131462046FFF70CFF66
:101FD0002882287EC10700D000BE40082876687E8F
:101FE000C10700D000BE40086876A98A002908D041
:101FF0000AE0241DD6E7241DD4E7241DD2E7241DC2
:10200000D0E77D21C900A982042800D000BE0020AD
:10201000FDE6F8B50025364F3548403F009021E0F9
:10202000EC0038593949884217D1E6197068800A9E
:10203000400412D001F06CFE09280ED9032170680B
:10204000090201400004800E0143385901607068A4
:102050002F49C001C00D086003E0E01939594068FC
:1020600008606D1C0098007EA842D9DCF8BDF8B568
:1020700000251F4F1E4E403F17E0E800C4192549B8
:10208000206988420DD101F043FE092809D922496F
:10209000606908401E4909884904084321690860AD
:1020A00002E02169606908606D1C707EA842E4DC72
:1020B000F8BD0F490420085E70470D490620085EF0
:1020C00070470B490820085E704709490A20085EDE
:1020D00070470748808970470548408A7047044820
:1020E000C08A70470248808A704700000100FFFFE5
:1020F000448CFC07C07EF807A5A5A5A54C4200505E
:1021000028000050A000FC07C07FF8074C100040DA
:102110000C7BFC0738300040FFFF01FC10B50622A5
:1021200001495CF7E9FF10BDD47FF80705200007DF
:10213000018830221143018001880322114301806C
:1021400070470520000701883022914301800188F3
:102150008908890001807047364A118B03231B02CE
:102160009943000201431183704733498A8A03234C
:102170005B029A43C3085B021A438A828A8A072356
:10218000DB0240079A43800C02438A822A4840308F
:1021900001880122114301802748203841894907DD
:1021A000FCD570472448818A4905890F808A8004BC
:1021B000400FC900081870471F498A8A03235B0231
:1021C0009A43C3085B021A438A828A8A0723DB0286
:1021D00040079A43800C02438A82704710B5044638
:1021E000154820384089C00502D40120C04310BDE5
:1021F00000F013FD002806D0FFF7D4FFA04202D95B
:102200000020C04310BD0C48408AC00408D40B48CD
:102210000088000704D4082C02D20420C04310BD5B
:1022200007480470012141702046FFF79EFF0020FF
:1022300010BD00002030005040000050200300502E
:10224000107BFC077CB500260196DE4C11E0009661
:10225000019830214843001905E000998900465053
:102260000099491C009100990C29F6DB0198401C4B
:10227000019001980128EADB02F05AFFD14D0021BC
:10228000083D2960696001962EE0009626E00099DD
:102290000120884080B20199CB4A4900515A01423D
:1022A0001FD00198302148430099001989004058F7
:1022B000411C00D100BE00280DD0C117009A5CF768
:1022C0005FFF019A12015CF75BFF2A686B6810439D
:1022D0001943286069600098401C009000980C2801
:1022E000D5DB0198401C019001980128CDDB7CBD15
:1022F000F8B505460C4616461F4622460120002129
:102300005CF73EFF2A015CF73BFFAE4A083A1368D0
:10231000526818401140084300D100BE6801AB4923
:102320004018610008183E43C680F8BD70B50546E8
:102330000C462246012000215CF722FF2A015CF7AF
:102340001FFFA04B083B1A685B6810401940084308
:1023500000D100BE68019D4940180121A140818043
:1023600070BD70B505460C462246012000215CF781
:1023700007FF2A015CF704FF924B083B1A685B6871
:1023800010401940084300D100BE68018F49401831
:102390000121A140418070BDFFB581B00A9E054674
:1023A0000C4617462246012000215CF7E9FE2A016F
:1023B0005CF7E6FE834A083A1368526818401140F9
:1023C000084300D100BE002E04D021462846FFF766
:1023D000C8FF03E021462846FFF7A8FF3A462146FA
:1023E0002846049BFFF784FF05B0F0BD70B5054695
:1023F0000C462246012000215CF7C2FE2A015CF750
:10240000BFFE704B083B1A685B68104019400843D8
:1024100000D100BE68016D49401800880121A1402B
:10242000084000D0012070BD00280BD0411E48405C
:10243000C003010C002002E04908401C80B20029C2
:10244000FAD1704710207047FFB583B00D9F154635
:1024500001200021049A5CF793FE039A12015CF7B5
:102460008FFE584A083A13685268184011400843D2
:1024700000D100BE56A0006801902E460A3E4020C2
:10248000B040029080B2FFF7CFFF002F01D00121B2
:1024900000E000214F4C8140A28902988243114301
:1024A000A1813F20FFF7C0FF8740A08980098001FC
:1024B0000743A7812027B740B8B2FFF7B5FF0C99B3
:1024C0008140208AB843014321820127B740B8B236
:1024D000FFF7AAFF06998140208AB8430143218271
:1024E0000F20FFF7A1FF039901AA525C049951182C
:1024F0008140700000190288120912011143018005
:10250000A807C20EFF20904080219140002D08DBDB
:10251000AB08314A9B009A18136883430B4313603E
:102520000AE02A07120F083A93082C4A9B009A18CF
:10253000D36983430B43D361002D05DBE906C90E44
:10254000012088402649086007B0F0BD70B501251C
:102550000A382C468440A0B2FFF766FF85401D482C
:10256000C189A1430D43C58170BDF8B50446154E20
:10257000012530360B2C04D17068002801D080472B
:10258000F8BD20460A3807460428F9D82046FFF748
:10259000DDFFB8003058002801D08047F8BD002C7E
:1025A000FCDBE006C00E85400E480560F8BD0A2041
:1025B000DBE70B20D9E70C20D7E70D20D5E70E206D
:1025C000D3E70000688CFC072C71FC07003000503A
:1025D000010000000014005000E400E000ED00E005
:1025E00000E100E080E200E010B5FFF7AAFD05225F
:1025F000120790882149000504D5214C2388052025
:10260000984314D09088C3061E4822D58388DB07E0
:102610001FD003881B061CD50122828002888023DC
:102620009A4302804868002800D0804710BD208867
:1026300004221043208020884008400020800B683E
:10264000002BF3D00220205EA15E0A22A25E9847F2
:1026500010BD9288D206FBD582889207F8D50288F1
:10266000D205F5D5022282800288FF2301339A43E6
:10267000028088680028EBD0804710BDAC8CFC0736
:10268000000200500001005081480188012212031D
:102690009143018070477E4908880122120310434C
:1026A0000880642000BF401E0028FBD17047784995
:1026B000CA88D208D2000243CA807047744AD188BF
:1026C0007023994300010143D1807047F8B5044657
:1026D000002C49D020786E4D2A8840218A43800101
:1026E00002432A806078FFF7E9FF2078002803D1B1
:1026F00060780009FFF7DBFFE0780426012834D07A
:102700002888B04328802079A9880002C9B20143F3
:10271000A980E8884006400F01277F02042828D0BE
:10272000FFF7B2FFA0780F2800D900BE69880F22FA
:1027300052029143400201436980607969888908A7
:10274000890001436980A07901283ED02888B843D8
:102750002880E079072800D900BE6988FF22C132AD
:102760009143800101436980F8BD28883043288067
:10277000C9E7FFF7B1FC47490880002801D1464866
:102780000880FFF788FF2888384328802988402060
:102790008143014329806888304368806888C00489
:1027A000C00C688068880F2149028843084368800C
:1027B0006888FF21C1318843FF2181310843688047
:1027C0006888800880006880F8BD288838432880A1
:1027D000BFE72F480188012211430180704770B57F
:1027E00005462B4C002020802120000160804020E5
:1027F000A080FFF76EFCA081A08970218843403043
:10280000A081062000F037F82846FFF75FFFFFF7AA
:10281000E0FF70BD1E48018802221143018070470D
:102820001B490120C8811D480068002800D00047CE
:10283000704710B5FFF7EEFF154801888907C90FEB
:102840000029FAD10121C181008A1549114A128853
:10285000801A7D22D2005043002802DD4A108018E1
:1028600003E0002801DA0F4A80185CF7E1FB8011D1
:10287000193040B210BD002809DBC106C90E012085
:10288000884009490860BFF34F8FBFF36F8F7047CF
:1028900000150050127BFC0740760000B88CFC0746
:1028A000AA0500002BFDFFFF80E100E0034943681B
:1028B000026880684B600A6088607047147BFC0780
:1028C00010B59C4A13885B085B0013801388402472
:1028D000A343138013880824A343C0000343138039
:1028E0001089800A80020843108110BD30B5914BD9
:1028F0001C886408640001252C431C801D8840242A
:10290000A54325431D80012900D101201C882025D5
:10291000AC43400104431C8018881024A0430901E3
:10292000084318809888800A80021043988030BD40
:1029300030B5EFF31081012282F3108805221207CF
:10294000948820239C431C439480002924D0012197
:1029500081F31088774C6034A18949084900A1812E
:10296000A189C907C90F0029FAD1724A2032118200
:10297000704903888B8243880B8383888B83C38849
:1029800013800B880625AB43457A6D002B430B80E3
:10299000817B002904D004E0002181F31088D9E76D
:1029A00000BEC37B002B00D100BE938B5B095B0193
:1029B000491E0B439383118B4B09C17B5B01491E5D
:1029C0000B431383817A012918D08189C07AFFF7DC
:1029D00077FF0120A18981430143A181A089C0071C
:1029E000C00F0028FAD0544801688022090A090261
:1029F0001143016051491020086030BD8289C17ABD
:102A0000007AFFF773FFE4E7F0B5054600240020E5
:102A1000DE0701D002263343464E60361BE0348A7F
:102A2000A407E40F002CFAD0002904D19C0702D59A
:102A30000124640200E000242F5C3C433D4F3C82B3
:102A4000401C80B23B4C80342488002C03D0394990
:102A50004031898A04E00F46491E89B2002FDED139
:102A6000002C0BD1D90709D0318A4907C90F002999
:102A7000FAD0318A8906C90F0029FAD1002A00D07C
:102A80001480F0BDFFB586469C460023002000223E
:102A9000284E284D60362CE001235B025F100BE0CE
:102AA000521C92B28A4204D16446A40701D51C4646
:102AB00000E000243C432C828A420AD2348AA407D4
:102AC000E40F002CECD104E02C8A73461C54401C0B
:102AD00080B2884204D2338B9B069B0E002BF3D12D
:102AE000144B80331B88002B03D012494031898A54
:102AF00001E08842D0D30299002901D002990B80CD
:102B000004B0F0BD10B50E49C96A002901D088474C
:102B100010BD042000F005F810BD06482030808963
:102B2000F0E7002805DBC106C90E012088400549F1
:102B3000086070470013005004E400E000E100E08A
:102B4000207BFC0780E200E037B582B00C461546DA
:102B5000002301AA294602A8FFF756FF022301AA73
:102B600029462046FFF78EFF05B030BD17B581B06E
:102B7000144600236A46214601A8FFF745FF0023BB
:102B80006A46214602A8FFF73FFF1FBD10B5024865
:102B9000FFF7CEFE10BD00002E71FC0710B50446F5
:102BA000FFF700FBA04202D22046FFF705FB594881
:102BB0000188C90708D101880122114301805548C5
:102BC000603841894907FCD510BD38B50546524CDF
:102BD00020684007400F00906946087885421BD066
:102BE0004C4860384089C0050ED5A81E03005CF72C
:102BF000D7FA0504080404040B000B20FFF7CEFFEE
:102C000002E01320FFF7CAFF2068C008C000284375
:102C1000206060684007FCD538BD404800787047A8
:102C2000052109070988090600D400BE80003C4937
:102C30000958394801613B494161704710B5EFF3CC
:102C40001084012080F31088324860384089C00524
:102C50000BD5324901200870FFF7A4FA32490870F9
:102C60002C480088C007C00F487005200007018865
:102C700080221143018028480168C908C900016009
:102C800041684907FCD50320FFF7CAFF002C03D099
:102C9000012080F3108810BD002080F3108810BD43
:102CA00070B5EFF31084012080F31088052212071D
:102CB000108880231843108017480168C908C9008C
:102CC000016041684907FCD5184901611549416116
:102CD0001088984310800F4860384089C0050ED591
:102CE0000E4800210170104D2878FFF765FA6878CA
:102CF000002804D107480188490849000180002CB8
:102D000003D0012080F3108870BD002080F310886C
:102D100070BD0000800000500000F407BC8CFC0770
:102D20004071FC07090404A4107BFC070F009909FB
:102D30008307FF22DB0E9A408907090E994000287D
:102D400008DB8308CF489B001818036893430B43A4
:102D5000036070470007000F08388308CA489B00CB
:102D60001818C36993430B43C3617047C74988422E
:102D700001D0012100E00021C54A490189181AE06B
:102D800003891B069B0F032B09D00023002B08D0BF
:102D90007C231B5A9B07DB0F002B1DD006E0012371
:102DA000F4E7838A9B06DB0F002B15D0531CCB80E6
:102DB0000B689A5C0280CA888B889A42E0D382882A
:102DC00002239A438280828880239A4382804A69C0
:102DD000002A01D0888810477047AC49808A704724
:102DE00070B50446A948844201D0012100E00021C9
:102DF0004801A74945182046FFF7EFFFA088400883
:102E00004000A080A969002901D0E889884770BDE9
:102E10009E49884201D0012100E000219C4A4901DD
:102E200089180A69002A03D0818A9E231940104715
:102E300070479649884201D0012100E00021944A60
:102E4000490189180A69002A01D0012110477047F9
:102E500010B5044620890107090F062916D009DCA0
:102E600001291BD002290DD00429F3D12046FFF7F8
:102E7000B4FFEFE707290DD00C29EBD12046FFF76F
:102E8000AFFFE7E72046FFF771FFE3E72046FFF7D4
:102E9000BFFFDFE72046FFF7CCFFDBE710BD7B4835
:102EA000D6E77C48D4E7EFF31081012282F3108843
:102EB000764B05221207984204D19088802318434C
:102EC000908003E09088402318439080002903D02D
:102ED000012080F310887047002080F3108870472D
:102EE00010B502464032938FDB07DB0F002BFAD17F
:102EF00083898022934313438381CCB2C0231C5225
:102F00000B041B0E03800902090E81808189914305
:102F1000818110BDF0B505460C465C4FBD4201D025
:102F2000012000E000205A49400146182846FFF7DA
:102F3000BAFF7C20405B20680102090A2846FFF79F
:102F4000CFFFE078C1068206890FD20FC900920038
:102F500040071143400F0143A981E1782846C90980
:102F600080300183E178CA091AD0BD4210D14906E8
:102F7000C90F2A8A20239A4349010A432A82E17809
:102F80004906C90F2A8A02239A4349000A432A8222
:102F900021790907890F818321798907890F0184A4
:102FA000207A3077E0683061206970616069B061D3
:102FB00020790007800F7077F0BD828A9206D20FC9
:102FC000002AFAD00180704730B505460C461346FA
:102FD00006E02178641C2846FFF7EFFF5B1E9BB2DA
:102FE000002BF6D130BD70B50446284EB44201D056
:102FF000012000E00020264D400145190020E88016
:10300000AA80002B06D0012B07D12960B44205D13C
:10301000022004E02046FFF7D7FF70BD032000F038
:1030200023F8A088022188430843A080A08880213B
:1030300088430843A080297FB44201D1022000E0E8
:103040000320FFF775FEB44201D1022000E0032007
:1030500000F001F870BD002805DBC106C90E012093
:1030600088400D490860704700280ADBC106C90E78
:1030700001208840084980310860BFF34F8FBFF3BB
:103080006F8F704700E400E000ED00E0001000509A
:10309000507BFC070011005000E100E0204821496E
:1030A00000680870020A4A70020C8A70000EC8702C
:1030B000704710B51B4840683FF727FC10BDF8B5B6
:1030C000194D1A480068A84228D0FF26C1360121B0
:1030D000304659F781FB0446FFF7E0FF0022114B11
:1030E000FF20C030801A215CA05C8707BF0FDF5D26
:1030F00079404140A154521CB242F1D309481C22EC
:103100002146001D5DF78CFF002800D000BE204640
:1031100059F7DDFBFFF7CDFF04480560F8BD00005F
:10312000007BFC07707BFC07658734129CB8FC07AA
:1031300070B505460C46204602F0E6FC82B200233C
:1031400021462846FFF74FFF70BD000070B56F495C
:103150004A688518002048606D4C284621465BF778
:1031600051FF6C49486022465043281A00280AD073
:10317000201A80B2086001218907086B0822904359
:103180001043086370BD0020F3E710B501208007ED
:10319000846B2046FEF763FBFFF7D8FF5E480460B0
:1031A0005E480068002802D0A04200D200BE10BDD8
:1031B00010B5FEF7C6FF052000074189890703D037
:1031C0004189890889004181018980221143018157
:1031D000018A042291430182818A8907FCD500F08B
:1031E000D0F8012080070169490700D500BE0169B8
:1031F0004907FCD510BD10B5FEF798FF4848018976
:103200004907FCD4FEF79DFF4648052100880907C1
:1032100048804548454C0088801E608007202080FB
:10322000FEF784FF20884007FCD4FFF7C1FF10BDE4
:10323000F8B53F480168C90703D00168022211436D
:1032400001600168490204D5016801229205114319
:10325000016001272D4EBD0754E0200606D58020D1
:10326000A8614AF714FB1E20FEF78AFAA00703D5CF
:103270000220A86146F709FA200708D50820A861AE
:10328000002046F7BBF90420307000F038FDE0055F
:1032900005D5FF200130A861012046F7AFF9A00550
:1032A00004D501204002A8614AF75AFB600603D505
:1032B0004020A86146F79DF9E00603D51020A861DB
:1032C00044F75AFD60070FD50420A861144801890E
:1032D0004908490001815AF7F7F83FF7B1F91E2074
:1032E000FEF74EFA00203070E00706D00120A861FA
:1032F0005AF706F94AF7CBFA3770A00602D5202014
:10330000A86100BE2C69002CA7D1F8BDC08CFC07B9
:103310007102000040000040D08CFC07C88CFC0704
:1033200000330050D48BFC07D88BFC0700160050EC
:103330000002004010B57149884200D300BEC002AF
:1033400064215BF75FFE002800D0401E10BD10B561
:103350006A49884200D300BE0021694B0CCB5BF761
:103360007BFE0903000D084310BD66480068806AB3
:10337000704710B53EF7A9FF63488068634948600D
:1033800010BD10B53EF7CDFF60485F4940688860CA
:1033900010BDF8B50024FFF7E8FF00900026FEF707
:1033A000A0F95B4F0021002802D13879022800D112
:1033B000009158480089C0070DD159F7EAF8002854
:1033C00009D00124F878002805D005200007808A5C
:1033D000C00701D004248FE0388800287ED1FEF792
:1033E00080F9002806D14C48806A002802D0FFF7F7
:1033F000BCFF0090FEF73FFAB978684659F7C1FE66
:10340000002879D00125AD072869400674D44048CA
:10341000817868464AF792FB00286DD00120FEF7BC
:103420009BFE0098002806D0296AFF393939DA292D
:1034300001D8401E00903948028839480168501868
:10344000384A1060EA6B920A92020A43EA63E96B17
:10345000354A364F11403A6892021143E963E96BED
:10346000C902C90A40050143E96304240098FFF733
:103470006EFF264A1060401E106039684B1C98424F
:1034800000D1116022480079002801D0012100E01C
:103490000021106846F768FA2548C06A8047FEF7A1
:1034A00053FA002802D0FEF741FE0126286B0004E3
:1034B000C00F0028FAD0144D2868C005FCD5286834
:1034C0008027B8432860002E01D0FEF73AFE114A4B
:1034D0005089462806D24621081A00E00CE0154B18
:1034E00018605181FFF745FF28680006FCD50520CC
:1034F00000070189B94301812046F8BD40420F0011
:10350000F88BFC0758B9FC0700020040C88CFC0788
:1035100054BAFC070033005074BEFC07D88BFC077C
:10352000087BFC07847BFC07FF03E0FF047BFC07B0
:1035300058BFFC07C48CFC070020704770477047D9
:1035400010B5282801D2282002E0E62800D9E6207C
:10355000002809D0FF21F33148437D21C9005BF7E2
:1035600051FD8130C0B210BD812010BD7047704741
:1035700010B502460C20022902D0012900D000BE5D
:10358000002A02D0FF2A00D000BEFF2A04D0022960
:1035900001D000F0BDFB10BD00F0BAFB10BD012151
:1035A0008907086B0722104308638D4801680213DE
:1035B00091430160704710B58A4B18680102090EEB
:1035C0000A31C2B20A32884C204009041143014337
:1035D000196010BD10B50220FEF7BEFD80480168DD
:1035E0000203914301607F48002140384163416BF1
:1035F0001F22120491434213891841630006016897
:10360000F0229143E031016010BD784B198B78486E
:103610008269120C12040A438261598BC269120C2E
:1036200012040A43C2617047704B203B198B7048EB
:10363000C268120C12040A43C260598B0269120C50
:1036400012040A430261704710B5FFF7EDFFFFF760
:10365000DCFF66482038018A65488268120C120433
:103660000A438260614B40339988026A120C12044B
:103670000A430262D988426A120C12040A43426267
:103680005A4B5988826A120C12040A438262998842
:10369000C26A120C12040A43C26210BD10B58AB08D
:1036A00000245449416254498162544941610022D5
:1036B00030210A545249C1625249016052490162A3
:1036C000524941605249C16100F000FB4548403811
:1036D000416B1F22120491434213891841634048F1
:1036E0000168C21291430160684602E00455641CFF
:1036F000E4B2282CFAD369462822464800684030B4
:103700005BF7FAFC092000F000FB00F004FB002846
:1037100002D0012000F0F9FA00F0D9FAFEF779FCA6
:10372000FEF7A5FC00F07AF8FFF745FFFFF752FF20
:1037300000F0CBFAFFF788FF00F0E1FA0AB010BD05
:1037400010B528484038416B1F22120491434213A0
:103750008918416300060168C908C9000160052095
:103760000007018908221143018100F0D4FA0028E2
:1037700002D0012000F0C9FA00F0A9FAFEF749FCD6
:10378000FEF775FC00F04AF8FFF715FFFFF722FF80
:10379000FFF73BFF00F0B3FA10BD10B50446144824
:1037A00070221D4910385BF7A7FC11483830011B07
:1037B0000F48203801830E494C31091B418310BD4D
:1037C00010B500F084FAFEF752FC00F027F8FFF77E
:1037D000F2FE00F07AFAFFF727FF00F090FA10BD32
:1037E000000200408000004000FF00FF2030004049
:1037F00080A0FC073935FC073D35FC077135FC0717
:103800009F35FC073F35FC076D35FC076F35FC071E
:103810004135FC074CB9FC075C71FC07F0B5F94871
:10382000406B7F21090288430B2109024018F549AA
:1038300048630846006A81B2F3480818F1490862F3
:103840000846806BF149012208405203ED49801877
:103850008863EC484030016903231B02194301616E
:10386000818B102421438183E64820308188012404
:1038700021438180E749E6480860E74C20883F21E2
:10388000090188432F21090140182080E24820388F
:103890008169E24D490D490549198161C169E04DD0
:1038A000294009256D024919C1614168DD4D294052
:1038B000DD4D491941608168DC4D2940DC4D4919D5
:1038C0008160C168DB4D2940DB4D4919C160016948
:1038D000DA4D2940DA4D49190161DA49C1250978E3
:1038E0006D0109064919D84D29600525D749AD0252
:1038F0000D816D1D8D81D54920310D892D0A2D0237
:1039000055350D818D25AD000D82D14D8D82D14D66
:103910000D83CF4D0E3D8D83CE49CC4DC91D403515
:103920002980CD49A181C16BCC4C2140CC4C0919D7
:10393000C163FF20CB4D6C302880CA4C2034208BD3
:103940001F2149010B268843B60180192083C548F1
:103950004030848809278C43BF01E419848004899E
:1039600015278C437F01E419048184898C43A119B4
:103970008181FF208D30A880BA4880300189E02401
:10398000A14319430181818B49094901193181837F
:10399000AD482030818B5B01994389188183AA4807
:1039A00080300168C908C900C91C0160A649AE4839
:1039B00040314862F0BD08B5A34900208031C8629B
:1039C000009002E00098401C00900098FF28F9DD6C
:1039D000A6480078A34AC006800D4032D1681F2354
:1039E0005B0199430143D16008BDA1488549006846
:1039F0004031086083488169890989011C318161EE
:103A00008169C21391438161016B3F221206914388
:103A10000722920689180163016B3F2292019143AC
:103A20000F22D20189180163016B890989011E31B6
:103A3000016370477348C16949084900C161704713
:103A4000814903204871704708B586484030C168F5
:103A5000864A8905C90E1170C1681F22520191431F
:103A6000C16079490120887177488030C16A03229A
:103A70001143C1620020009002E00098401C0090B9
:103A80000098FF28F9DD08BD08B56F49022088714C
:103A90000020009002E00098401C009000980B2845
:103AA000F9DB08BD574841210177C1690322520261
:103AB000914302158918C161704752494320087724
:103AC0007047504840300168694A11600021C9437D
:103AD00001604C4881698909890181618169C2134A
:103AE00091438161C269032149028A430315D218B7
:103AF000C261C26970239A434032C261026B3F23A4
:103B00001B069A430B235B06D2180263026B3F230A
:103B10009B019A4351180163016B8909890118318E
:103B200001637047F8B5FFF78BFF364D6868C00931
:103B3000C00114306860FFF7C4FFFFF7BEFFFFF756
:103B4000A3FFFFF781FF002600962C1502E00098E6
:103B5000401C00900098A042F9DBFFF771FF294854
:103B600080308068C705FF0DFFF725FF009602E053
:103B70000098401C009000981028F9DBA8694002CA
:103B8000400AF9050843A861A8693A490840F905BF
:103B9000490C0843A861FFF785FFFFF775FFFFF7A2
:103BA00053FF009602E00098401C00900098A0424D
:103BB000F9DBFFF745FF134880308068C705FF0D2C
:103BC000FFF7F9FE0020009002E00098401C0090F2
:103BD00000981028F9DBA8694002400AF90508435B
:103BE000A861A869234EF9053040490C0843A86133
:103BF000FFF758FFFFF748FFFFF726FF0027009762
:103C00003DE000000030004000008888FF00FEFF1B
:103C100059055C07800000402020004009581A0028
:103C2000FEE1FFFFE0E0000008092949000003036E
:103C3000696A686C031FFFFF70600000E0E0E0E06D
:103C40000B0A0A08D48CFC07001000402013004027
:103C5000340A000051080000070F00002F64E0FE46
:103C6000101A060100120040500150016477FC0751
:103C7000887BFC073F80FFFF0098401C0090009865
:103C8000A042F9DBFFF7DCFE24488068C405E40DA0
:103C9000A8694002400AE1050843A861A869A1019A
:103CA00030400843A861FFF7C5FEFFF79EFEFFF70F
:103CB00082FE009702E00098401C009000981028B7
:103CC000F9DB174844810120F8BD2BE7704708B5A0
:103CD000144A082010710021009102E00098401C55
:103CE000009000981028F9DB009102E00098401C39
:103CF000009000981028F9DB0320507108BD094896
:103D00000221817100218180704707490870704746
:103D1000054800787047044840787047803000407C
:103D20008C7BFC0700100040D48CFC07FFB585B0ED
:103D30000C46FD205DF75CFA049000260396089877
:103D4000070A208803A95EF77FFB054660880028E4
:103D500000D000BE002D6BD1FD2001F0D5F86946E2
:103D6000097B14238E46594342680B1DD35C022BFA
:103D700021D15158354A098891421CD100960196AB
:103D800020885EF7FCFA002800D100BE6B460022B6
:103D900002A94DF7E9F8029821468005C00F5EF7A9
:103DA000D9FAC5B2002D26D16846017BE288384693
:103DB0005EF7ABFC1FE000280AD08069844600282B
:103DC00006D0A2886188A31D70466546A8470546AF
:103DD00000960196208869464CF741FE002D0AD1D5
:103DE00000980089C00B06D16288A1882088A31D95
:103DF0004CF79FFE0546002D1AD1394604985DF711
:103E000015FA0146A088079A801D83B2104858F71A
:103E1000F1FD0646A288A11DB01D5BF76DF968464D
:103E2000007B7080A088B0803770304658F7FDFD69
:103E300004230848079A089958F7DCFD2188018077
:103E4000857058F7F2FD002009B0F0BD022900008E
:103E50000AFD0000160C0000F8B50025254C0026D0
:103E6000FF27002811D025E0266128461030A082C7
:103E7000E7826660A660E681A6812660C0B2214620
:103E800058F7B7FF6D1CEDB21834022DECD3F8BD16
:103E9000E08A5DF733FA002802D04168204688475F
:103EA000E7826660A660E681207D58F7FCFF6D1C06
:103EB000EDB21834022DEBD3F8BD70B506460024E0
:103EC0000C4D14E0E88AFD2805D11820094A60430A
:103ED000094980184160E88A5DF710FA002803D08C
:103EE0008268314628469047641CE4B21835022C9B
:103EF000E8D370BDDC8CFC072472FC0710B500F021
:103F00000BFD5FF7F5FB0020FDF7D2FB10BD10B5F0
:103F10000C216F4A414389188978FF2902D000F0AB
:103F200047F910BD01F065FA10BD10B55FF7C8FA8A
:103F3000002801D001F05DFA10BD10B501F059FA6A
:103F400010BD10B563490A780270491C401C5BF72C
:103F5000D3F810BD5F49498C01807047082101806A
:103F600010214180002181807D21C180704770B582
:103F70000C4601780025574B002904D001290AD0AE
:103F80004820207070BD82781A70011D581C5BF7A4
:103F9000B3F8257070BD40885884257070BD01202D
:103FA00008700020488088807047FEB5044660791C
:103FB00080093AD1FEF742FE0220FEF706FE46488F
:103FC0000169C9B20291016A0191416A0D022D0A8B
:103FD000866AFEF772F80704FEF76BF8074300974E
:103FE000FEF773F80704FEF76CF838430199009F59
:103FF0004E407E4002994D404540FEF751FE30460E
:10400000FDF7C4FE06462846FDF7C0FE2670310ABD
:104010006170310CA170310EE1702071000AC02175
:1040200008436071204601F008FBFEBD10B500F0AA
:104030004EFD10BD10B500F0AAFD10BD10B5044630
:104040004978204600F089FB204600F0CFFD20464D
:1040500000F0BFFD10BD10B504460222002000F0A4
:104060003FFE014608000AD07A201C4A60438018AF
:104070007A225BF741F8204600F00BFE10BD204687
:1040800000F01AFE10BD10B504461022891D022052
:1040900000F026FE014608000AD07A200F4A60434D
:1040A00080187A225BF728F8204600F0F2FD10BD58
:1040B000204600F001FE10BD10B500F0FDFD10BD62
:1040C0000178242903D14078972800D100BE704799
:1040D0002A8DFC07368DFC07C07FF807708DFC0722
:1040E0000021F64B05E0824201D101207047491CB6
:1040F000C9B20C224A439A5CFF2AF4D100207047CF
:1041000070B5EE4AEE4C0FE080184068002809D0E8
:104110006078491C61700C214843801840688047D2
:10412000002070BD491C617060780C230146584323
:10413000135CFF2BE8D1E14D0C350AE049194968C1
:10414000002903D0FFF7CCFF00280AD02078401CBC
:10415000207021780C204143685CFF28EED1D94AB9
:1041600019E02078411C21700C2148434019406817
:104170008047002070BD8018C068002809D0A07852
:10418000491CA1701C2148438018C068804700204A
:1041900070BD491CA170A0781C2301465843135CD4
:1041A000FF2BE8D10020A07060702070012070BD4E
:1041B00070B505460024C14E0FE0801980680028C4
:1041C00009D02046641C0C21484380198168E4B260
:1041D0002846884701E0641CE4B220460C2148438D
:1041E000315CFF29E9D10024B44E0C3609E089196D
:1041F0008968002903D0FFF773FF00280BD0641CE7
:10420000E4B220460C2148430146305CFF28EED141
:104210000024AC4E19E02046641C0C214843801950
:104220008168E4B228468847EBE7801900690028D6
:1042300009D02046641C1C21484380190169E4B25E
:104240002846884701E0641CE4B220461C2148430C
:10425000315CFF29E9D170BDF8B5994DE8680028B7
:1042600054D1522304220921974858F7C3FB04462E
:10427000EC600D202070002666709449A180E180DA
:1042800007202072A672012060721620E07220467C
:104290000C3016228EA100905AF72EFFE8682030CD
:1042A000C67227462C37904801F02EFC00282DD0EE
:1042B0008D4801F029FCE968401DC97A401886B292
:1042C000894801F021FCE968801C2031C97A401836
:1042D00080B21F2E0CD8844801F016FCC1B2E27ADD
:1042E0000098814B121820460B305FF713F90DE050
:1042F0001F280BD87C4801F007FCC1B22B20005DC1
:10430000794BC21920462B305FF704F9E868F8BDF5
:1043100070B504466A4EA500361D7059002817D1A5
:1043200021020A310E230422704858F763FB092149
:104330000170002C00D000BE705110218180082136
:1043400041800021C180FF22F532028141818181BB
:10435000705970BDFEB55A4DA868002852D15A4810
:104360002C2304220921093858F744FB032101704A
:104370000446AC600A216170F42121840121A176F8
:1043800000266680204610210A305AF7CEFE58A03B
:1043900003C801910090494F06222C3F5649781DD1
:1043A0005AF7CEFE002807D005226946781D5AF735
:1043B000C7FE00280BD00BE041481830FFF7F5FD91
:1043C0003F4906221831201D5AF796FE06E000BE2E
:1043D00000BE0622791D201D5AF78EFE2020E076B1
:1043E000A683E68366844548FB21C08FFB2800D95D
:1043F0000846E0844148424940300088884200D95C
:1044000008462085A868FEBDFEB500242C4E002578
:104410001E362A49009501950C22343168460295D2
:104420005AF76AFE0C20604380190C2269465AF73D
:1044300063FE641C012CECDB2B4801F065FB20289B
:1044400003D8294801F060FB00E020201C4CC2B2D8
:104450002A3422702449601C5AF74EFE658417499D
:104460000420243158F7C5FC0021042058F7F3FC40
:10447000FEBDF1E610B5FFF7EFFE58F7D6FA10498A
:104480000020C8600221042058F7E5FC10BD10B5DB
:1044900004462046FFF73CFF58F7C7FA084A0020B9
:1044A000A100121D505010BD10B5FFF753FF58F773
:1044B000BCFA03490020886010BD00008C72FC0724
:1044C0000C8DFC074874FC070D0D00004C04000027
:1044D00003030A181107595A08E4862A9E8FE91126
:1044E000BC7C9843421800008277FC070E0E000047
:1044F000FFFFFFFFFF000000DCF1F107F0BBFC074E
:104500004808000010B5104658F7BAFC002802D041
:1045100000BE002010BD012304220921844858F761
:1045200069FA0121017058F780FAF2E710B50C78AA
:104530000F2C17D00CDC0C2C14D004DC012C13D065
:10454000032C0DD118E00D2C1ED00E2C08D109E043
:10455000112C07D0122C05D0132C19D0172C19D0E0
:1045600001F031F8002010BD4878002801D000BECD
:10457000F8E7FFF799FFF5E74878002801D000BE7B
:10458000F0E7FFF7D2FCEDE7487800F06FFFE9E7CE
:104590004878E7E748784728E4D1180AFFF78CFD08
:1045A000E0E7F8B50E4610461C4658F769FC0228AD
:1045B00002D000BE0020F8BD240A002C00D000BEAE
:1045C00020460C2148435B4907464518AC70FF2C38
:1045D0001AD00120E8700321042058F73CFC55480C
:1045E0003188C153707A28713146681D06220A311C
:1045F0005AF782FD7A205049604340186030017EAE
:10460000012220465EF770FF3146204600F004FF8D
:10461000D0E770B50D784C78092D04D0002C00D06F
:1046200000BE00F0D0FF002070BD70B50C461046F3
:104630001D4658F725FC2A0A032802D000BE002098
:1046400070BD0C2042433B48FF21101881700021AF
:10465000C170204600F00EFFF1E7F0B589B01746B3
:104660001E4608780025354C002804D0012820D0AB
:1046700002284BD12FE0324801F046FAF82800D941
:1046800000BE6846FFF75DFC684603783A460A3389
:104690003146204658F7AEF9044625706846027840
:1046A0006280411C201D5AF727FD204658F7BDF9AE
:1046B0002CE0089508A8FFF74DFC0A233A4631463E
:1046C000204658F797F9012101706946098C41800D
:1046D00058F7ABF91AE00A233A463146204658F714
:1046E00089F9044607A8FFF739FC022020706846C4
:1046F000808B60806846C08BA0806846008CE0801C
:104700006846408C2081204658F78FF9002009B078
:10471000F0BDFEB51746089A1E460E24094D0092BC
:104720003B460195029432465EF7E2FDFEBD000075
:10473000020D00002A8DFC07708DFC070B0E000097
:104740008277FC07CC72FC0710B53EF7D8F8184901
:104750005AF758FC1748081810BDF8B50F4605461B
:104760007A20154E4543AC1927772046082214308D
:10477000114600F0D7FCA01C1022394600F0D2FCF4
:104780003EF7BDF86082705D012108437055F8BDA9
:1047900070B504467A20084D444360191022513008
:1047A000114600F0BFFC285D08210843285570BD64
:1047B000A0BB0D00A0860100708DFC0710B5180A83
:1047C0000A7813005AF7ECFC08051C1C1C131D1674
:1047D000191C0C224D4C012342431219D3727A2228
:1047E0004B4C00234243A354FFF720FC09E000F0A8
:1047F00050FE06E0FFF71EFC03E0FFF71FFC00E0A1
:1048000000BE002010BDFFB581B01A46100A00900E
:10481000140A23467A2044430C253D486B430F7805
:104820003A4D2018BF1E06465D1960363B005AF708
:10483000B7FC0604153D1C27323D89783176C9073F
:1048400006D0691D713006225AF756FC2879F0759A
:10485000009800F0C2FD0020E8722CE00020E87211
:10486000307600985EF78CFE25E0294D3A3017220D
:10487000891C5AF741FC285D0421084328551AE099
:10488000234D61301022891C5AF736FC285D102117
:10489000084328550FE01E4D1E301C22891C5AF774
:1048A0002BFC285D02210843285504E01346039A97
:1048B000019800F088FE002005B0F0BD10B5180A80
:1048C000FFF7C9FB002010BD180A7A225043104A96
:1048D00009788018603001760020704710B5180AFA
:1048E000FFF7D1FB002010BD00207047002070476B
:1048F000FEB51746089A1E460724064D00923B4611
:104900000195029432465EF7F3FCFEBD2A8DFC074A
:10491000708DFC073C73FC07704710B50A23042216
:1049200009210B4858F766F804461B202070142014
:104930005EF7B2FE6070142060800420A08000202A
:10494000E08020462F21018158F76FF810BD00004C
:104950001B0D0000FFB585B00E461F460024002544
:10496000307803005AF71CFC09060912152D180CA3
:104970002D0F2D001A2426A524E009242BA521E0C3
:1049800008242DA51EE007242EA51BE013242FA527
:1049900018E0062432A515E0142168465AF7C5FB35
:1049A00000F05FFE0446204601F0AEF802462146C4
:1049B00068465AF7A1FB684601F0A6F8C4B26D46F6
:1049C00000E000BEA31C39462748079A58F712F8A2
:1049D0000746307838707C70002C04D02246294677
:1049E000B81C5AF789FB384658F71FF8002009B061
:1049F000F0BDFEB51746089A1E4601241B4D0092D5
:104A00003B460195029432465EF772FCFEBD000003
:104A10004E5371756172656420546563686E6F6C86
:104A20006F6769657320496E632E00005155454ECE
:104A3000545F312E30000000123456FFFE9ABCDE67
:104A40000000000001D2008005000100312E302E50
:104A5000302E30202D205175656E745F312E300060
:104A6000565F312E39320000031400007473FC07C6
:104A7000052000070089000608D501208007006B8B
:104A8000000403D403480078C00701D00020704719
:104A90000120704754BAFC07F8B5934E8500715950
:104AA000002912D101020A311E2304228F4857F730
:104AB000A1FF012707700446745107228C49A01CEE
:104AC0005AF71AFB0520207167707059F8BD10B5B0
:104AD00004462046FFF7E0FF57F7A7FF0020824A71
:104AE000A100505010BD70B57F4D84002D1D295977
:104AF000002909D101020A311E2304227B4857F7FD
:104B000079FF042101702851285970BDFFB581B08B
:104B100004461F462046FFF7E6FF0646724DA400F6
:104B20002D1D28591021801C5AF7FFFA2859039A85
:104B3000801C02995AF7E0FA7770304657F775FFF4
:104B40000020285105B0F0BD70B50546664EAC009A
:104B500008363059002818D129020A311E230422B0
:104B6000624857F747FF062101700121417030511B
:104B70002846FFF70DFE7A2045435E48102229188B
:104B800030595131801C5AF7B7FA305970BD10B501
:104B900004462046FFF7D8FF57F747FF524A002048
:104BA000A1000832505010BD70B54F4D84000C3537
:104BB000295900290BD101020A311E2304224B4836
:104BC00057F718FF0721017001214170285128591A
:104BD00070BD10B504462046FFF7E6FF57F725FFE6
:104BE000414A0020A1000C32505010BD70B504465F
:104BF0002046FFF7D9FF05467A2044433D48241854
:104C0000207F2877608A688221462846143108224E
:104C100014305AF771FAA11C1022A81C5AF76CFA2A
:104C200070BD70B5304D840010352959002908D168
:104C300001022E480A3112230422001D57F7DAFE22
:104C40002851285970BD10B504462046FFF7E9FFEA
:104C500057F7EBFE244A0020A1001032505010BD3F
:104C600010B504462046FFF7DCFF012101707A21D0
:104C70004C43204961180A7F4274891C1022401C51
:104C80005AF73AFA10BD10B5FFF7CBFF00210170BB
:104C900010BD10B504467A201649604340186030B4
:104CA000017E012220465EF71FFC2046FFF7D8FF59
:104CB0002046FFF7C8FF10BD10B504462046FFF799
:104CC000E2FF2046FFF7BFFF20465EF759FC10BD0C
:104CD00010B500F06AF910BD10B500F070F910BD04
:104CE00010B500F0C3F910BDEC8DFC07140E0000E8
:104CF0004074FC07708DFC0700217C4A8B00D35860
:104D0000002B04D0491C0A29F8DB002070478B00D7
:104D1000D050491CC8B2704730B4431E092B10D87C
:104D20009A00724B995800290CD0714CA14209D0BD
:104D3000704CA14206D000249C5028339C5030BCBB
:104D4000084700BE30BC704770B504460D46FFF7FB
:104D50008FFE002806D068482A460421201858F7FC
:104D600088F970BDFCF7C0FC634804220823114693
:104D7000801E57F73FFE4560047057F756FE70BD22
:104D800010B54A68002A00D100BE5C48824200D3B8
:104D900000BE087858494018042158F76AF90020E5
:104DA00010BD10B50C462078411E09291BD8401EA5
:104DB0004E4A800011584F4B994204D100211150A6
:104DC0002832115010E04A4881420DD104220823B4
:104DD0001146494857F70EFE21780170616841601D
:104DE00057F723FE00E000BE002010BD10B5087884
:104DF000421E092A10D8401E3C4A800013583C4CE1
:104E0000A3420AD1134628331B5813504A68087826
:104E10001146FFF799FF00E000BE002010BD10B55D
:104E2000354949424018C0B2FFF776FF002010BD57
:104E300070B5049C324D451914D0012D08D0022DB7
:104E40000BD02F4DED1E45190A2D10D3012070BD3A
:104E5000FFF7A7FF2070002070BDFFF7C7FF20708D
:104E6000002070BDFFF78CFF2070002070BDFFF7A1
:104E7000D6FF2070002070BD70B50546002D00D112
:104E800000BE1E48854200D300BE0846FFF734FF2F
:104E90000446002C05D029462046FFF755FF204642
:104EA00070BD002070BDF8B50446601E09281AD8F0
:104EB0000E4F85007859002813D00E4EB04210D006
:104EC0000D480421201858F71EF97E510A48042283
:104ED00008231146401E57F78DFD047057F7A5FDB6
:104EE000F8BD00BEF8BD00BEF8BD0000048EFC0792
:104EF000074FFC07054FFC0703040000FCFF3F00C1
:104F0000FFFBFFFF704770470021154B06E0824210
:104F100003D11C204143C8187047491C1C224A4336
:104F20009A5CFF2AF3D10020704710B518230422A1
:104F300009210C4857F75EFD04461B202070FD2018
:104F40005EF7AAFB6070FD2060800420A080002135
:104F5000E1802046C1600161818257F766FD10BD86
:104F60004874FC071B0D0000FEB5089C16461D4644
:104F7000002201920292334600942A465EF7B8F965
:104F8000FEBD000010B503466148AA224418A27075
:104F90007A2251430818203019465AF7ADF80020FC
:104FA0005C49401C8842FCDB10BD10B500F05BFB87
:104FB0000146A122920056485AF79EF810BDF8B556
:104FC000064600270024FF25514853490180544AD2
:104FD000524951804E4801198978AA2904D0002FDE
:104FE0001DD1012725461AE07A21614309182020A6
:104FF000405C32781040400709D530465A311022C3
:105000003A305AF79DF8002809D125460BE0304682
:105010009131072271305AF793F8002806D0641CAA
:10502000E4B2052CD6D3FF2D02D010E02546FAE7D6
:10503000374BDA68002501218800C018C06890420B
:1050400001D202460D46491CC9B20529F4D33048A5
:10505000AA0012188168D1608168491C816079209A
:10506000855529463046FFF78DFFF8BDF7B5054653
:1050700000270024264E002D09D17A206043801994
:105080003230029A01995AF75BF8002802D0012DBC
:1050900005D00EE07A204443A719203731E07A206A
:1050A000604380199130029A01995AF749F8002813
:1050B00002D0022D05D00EE07A204443A7192037F4
:1050C0001FE07A20604380195A30029A01995AF7FA
:1050D00037F8002802D0032D05D00EE07A20444393
:1050E000A71920370DE07A20604380196A30029AB0
:1050F00001995AF725F8002805D0641CE4B2052C64
:10510000B9D33846FEBD7A204443A7192037F8E7C3
:10511000548EFC07A08601003512000022430000D7
:10512000D490FC0710B58A4201D35EF719F910BD7F
:1051300070B54C4D00202968C043002901D00146BC
:1051400000E001212960484ECA173368746819438A
:10515000224331607260E968002901D0024600E014
:105160000122EA60D117530FC90019433368D200F6
:1051700074681A432143326071602969002901D0A3
:10518000024600E001222A61D117130F09011943D9
:105190003368120174681A43214332607160696890
:1051A000002901D0014600E001216960CA174918B1
:1051B0003368524174681943224331607260A969AF
:1051C000002900D10120A861C117820E8901114375
:1051D000336880017268184311433060716070BD9C
:1051E000F8B50125032636021D2332462946002044
:1051F0000095FDF7D1F800241C23324604212046F7
:105200000094FDF7C9F800211B233246084600949C
:10521000FDF7C2F800221A23032110460094FDF77F
:10522000BBF8124805800423324606210020009472
:10523000FDF7B2F8F8BD70B50C4C012525801B2098
:10524000FCF7CCFF00F040FC09490A48FDF762FE7C
:105250000948FDF72BFBFFF7C3FFA089A8432843AC
:10526000A08170BD688CFC07608CFC0700030050B7
:105270006877FC07001100502077FC07A74805213C
:105280000170FF214170CD218170AB21C1700021DF
:10529000017141717047A1494A790879120210439E
:1052A000401C80B20871020A4A719D4A904202D1A4
:1052B0000020087148717047FEB504461646002B61
:1052C00001D01C2200E01F22E07A944F131A2246DC
:1052D0000C32019220322546BF1F20350092B34286
:1052E0000ADB019A8018324659F706FFE07A8019E6
:1052F000E072801FF87012E0E87A1F22121AB242A0
:105300000CDB009A8018324659F7F6FEE87A8019CD
:10531000E872801F80210843F87000E000BEE27A46
:105320003A717E480199801D59F7E6FEEA7A7A7152
:105330007A480099253059F7DFFEFEBD70B5774DEC
:10534000AD1FE878000602D52C462B3401E0734CE3
:10535000A41DFFF7A0FFE87806224006400E0019C2
:105360006E4959F7C9FE6D4A6B7925321046297985
:105370001F385EF7E1F86C486A490088FFF77CFD4A
:10538000687070BD10B5654CA41F2078FFF77FF8DA
:105390000020A07010BD7CB5604C0025A41FA57036
:1053A000FFF76CFF2046162260A10C3059F7A4FECF
:1053B0001620207165710120002300900B2204212A
:1053C00001951846FDF740F8FEF798FD0C21FD20E9
:1053D0005EF776F9FFF77CFC7CBD10B57A21484377
:1053E000584940187821095CC90701D0FFF774FCBF
:1053F00010BD10B5FF204B492D30FFF73DFD47494B
:10540000891F4870FFF735F8012306224349FFF74B
:1054100053FFFFF72FF810BD70B505460C460C2062
:105420004949684340188078FF2818D03B4EB61F82
:1054300035707078FFF737FD60880838092807D283
:10544000A088002804D1E0880146FF39F53908D04A
:105450007D203E49C000FFF70FFDB07001E0FFF76F
:10546000C8FF21462846FEF752FD70BD442800D1F2
:10547000BFE7704710B5294CA41FA078002803D0BF
:10548000FFF711FD0020A070FFF705FFFFF7B1FF48
:1054900010BDF3B585B00125487800280DD001284E
:1054A00019D0022807D0032805D12B461022891CC9
:1054B0000598FFF72BFB07B0F0BD25A001460EC9EC
:1054C000C06801AC0EC404902B46102201A90598B7
:1054D000FFF71CFBEFE70020049002900390FFF71A
:1054E00033F91F4804902B46042204A90598FFF7BE
:1054F0000DFB002402AE05270A21049859F782FD0E
:105500003A1BB1540490641CE4B2062CF4D32B462D
:10551000042204A90598FFF7F9FACCE7DE90FC070E
:10552000FFFF00003D53FC078077FC0703030A18C8
:105530001107595A08E4862A9E8FE911BC7C9843CA
:1055400042180000708DFC072A8DFC078553FC076C
:10555000000102030405060708090A0B0C0D0E0FD3
:1055600040E2010010B5044660880A2805D1207980
:10557000002802D10421FCF739FF608810BD10B566
:1055800004462078012801D1FBF753FC207802283B
:1055900001D1FBF7BDFC2078032801D1FBF776FC95
:1055A0002078042801D1FBF7E4FC2078052801D1FC
:1055B000FBF76BFD2078062801D1FBF7ABFD10BD92
:1055C0002A490880704770B504460D461E4630468D
:1055D000FFF7F6FF2649601A8C421BD01BDC2548DA
:1055E000201817D02449C84214D121480823314635
:1055F000801E57F7FFF929780C2251431F4A89185A
:1056000089780170698841800021818080218171C1
:1056100057F70BFA70BD02280BD00328FAD1304699
:10562000FFF7CEFF68880A28F4D1A81DFFF7A7FF6F
:1056300070BD2846FFF796FF70BD10B5002105220A
:105640000A4CA41C06E01346521EC35CD2B263543B
:10565000491CC9B20629F6D310BD04490988018046
:10566000704707487047064814307047B67BFC0700
:1056700007FD0000EFF1FFFF0D11FFFF2A8DFC0772
:10568000A077FC07F8B507460D461646042057F7E5
:10569000F7FB03281FD1FD203DF795F80146AB1D10
:1056A00004220D4857F7A6F904466846FFF7D5FFD0
:1056B00068460088000A0C21484308494018807851
:1056C00020706680A5802A463946A01D59F714FD32
:1056D000204657F7AAF9F8BD08FD00002A8DFC07FF
:1056E000F8B5074601200023024600901946032022
:1056F00043F788FE0446022180300170F64DF548DC
:105700002A6843881146FF31F7310B868088488626
:10571000F248066A0123DB069E431E430662FF32FF
:105720000020FF32383250829082D0821D200882C1
:10573000EB484884EB48C882EB4808830020488245
:10574000384644F79FF901462868FF30F730C28B8E
:10575000920992010A43C283E448416800208847C5
:10576000002C02D0204643F736FA2046F8BDFFB59C
:105770008BB0064616980027022821D00D98018884
:105780001498814278D37188084640383F2802D85F
:10579000159850F733FA0C98361D0088149A801922
:1057A0000E9959F7A9FC0C980188149808180C99BF
:1057B00008800D9801881498081A0D9908805CE1FA
:1057C00000200E9D079069782C78090221433180D2
:1057D000E978AC780902214371808C464039042471
:1057E0002D1D024603468E46402900D32878614687
:1057F00004291FD0052914D0062918D070463F2847
:105800003DD8159850F7FAF90006000E04D0B848B4
:10581000008D0006C00F30D002230120B54A0027BA
:1058200012E0697800290FD0B34A17230CE0B34A7D
:105830000F2309E0522802D0D22802D002E014201F
:1058400000E01520AE4A1F23002A1AD0984218D231
:10585000800010580490002813D000200890059074
:1058600070884038402803D32878052430716D1C97
:10587000701D00900498B5E0FEE03027F0E033277B
:10588000EEE07088042872D10627E9E0522862D041
:105890000CDC4B283FD004DC41286AD0422858D188
:1058A00011E04C2820D0502853D140E0632830D05C
:1058B00004DC572818D061284BD19BE06C2864D0B9
:1058C000772846D109E00098297801700098641C77
:1058D000401CA4B26D1C009081E00498401C049010
:1058E0000178089881427AD10098A41C401C410894
:1058F0004900881C009068782A78000210430880CC
:105900000599AD1CA4B2002969D00890002005902B
:1059100065E00120FBE710222946009859F7ECFBCF
:10592000009810341030A4B21035009057E0204693
:1059300040301499039088420BD8402229460098A1
:1059400059F7DAFB0098403000900398403584B254
:1059500045E0342743E008222946009859F7CCFB5C
:10596000009808340830A4B20835009037E068E0A9
:10597000FFE706222946009859F7BEFB0098A41DB0
:10598000801DA4B2AD1D009029E01498001B80B2C8
:1059900003903088001B001D81B2012007900498FD
:1059A000401C04900098401C40084000009004985F
:1059B000007857281CD04228CBD100980170090AE2
:1059C000417000982946801C0090039A59F794FB77
:1059D00003980399201884B2009840180090049806
:1059E000401C0490007800281ED0002F17D01BE028
:1059F0004908E2E71498001B81B200980391401C0B
:105A000040084000009001200A460790294600986F
:105A100059F772FB0399601884B20098DDE70D997D
:105A20000988A14200D331E70D980088A04208D32D
:105A300004990978002904D10799002903D1A042CB
:105A400001D034270CE00D99001B08800C980188C8
:105A50000098801B001F08180C99002F08800CD09C
:105A60007088042809D0062807D04038402804D37D
:105A70000E984079707100E0342738460FB0F0BDC1
:105A8000FFB581B01F4616460C46104657F7F8F989
:105A900000257F2802D02189062909D03B463246BD
:105AA0002146019850F73DFC0546284605B0F0BD5B
:105AB000C00601D50225F8E720780028F5D1300A84
:105AC000A11D3CF7C6FDF0E70E49002008607047B5
:105AD0007047000030BCFC074CB9FC07C000004018
:105AE00010800000294100007671000058BFFC07BB
:105AF00048BEFC073803F2074003F2079C03F20795
:105B0000D803F20700000840421C0178401C00291D
:105B1000FBD1801A7047034610B508330722040EE4
:105B2000090221435B1E1C7800022043521EF6D559
:105B300010BD70B504460D46072310700E06000A0E
